:020000040000fa
:080000000001040000000000f3
:020000040000fa
:0400080004020000ee
:020000040000fa
:04000c0046020000a8
:020000040000fa
:040010008602000064
:020000040000fa
:0400140024020000c2
:020000040000fa
:04001800660200007c
:020000040000fa
:04001c00a602000038
:020000040000fa
:04002000a602000034
:020000040000fa
:04002400a602000030
:020000040000fa
:04002800a60200002c
:020000040000fa
:04002c00a602000028
:020000040000fa
:04003000a602000024
:020000040000fa
:04003400a602000020
:020000040000fa
:04003800a60200001c
:020000040000fa
:04003c00a602000018
:020000040000fa
:04004000a602000014
:020000040000fa
:04004400a602000010
:020000040000fa
:04004800a60200000c
:020000040000fa
:04004c00a602000008
:020000040000fa
:04005000a602000004
:020000040000fa
:04005400a602000000
:020000040000fa
:04005800a6020000fc
:020000040000fa
:04005c00a6020000f8
:020000040000fa
:04006000a6020000f4
:020000040000fa
:04006400a6020000f0
:020000040000fa
:04006800a6020000ec
:020000040000fa
:04006c00a6020000e8
:020000040000fa
:04007000a6020000e4
:020000040000fa
:04007400a6020000e0
:020000040000fa
:04007800a6020000dc
:020000040000fa
:04007c00a6020000d8
:020000040000fa
:04008000a6020000d4
:020000040000fa
:04008400a6020000d0
:020000040000fa
:04008800a6020000cc
:020000040000fa
:04008c00a6020000c8
:020000040000fa
:04009000a6020000c4
:020000040000fa
:04009400a6020000c0
:020000040000fa
:04009800a6020000bc
:020000040000fa
:04009c00a6020000b8
:020000040000fa
:0400a000a6020000b4
:020000040000fa
:0400a400a6020000b0
:020000040000fa
:0400a800a6020000ac
:020000040000fa
:0400ac00a6020000a8
:020000040000fa
:0400b000a6020000a4
:020000040000fa
:0400b400a6020000a0
:020000040000fa
:0400b800a60200009c
:020000040000fa
:0400bc00a602000098
:020000040000fa
:0400c000a602000094
:020000040000fa
:0400c400a602000090
:020000040000fa
:0400c800a60200008c
:020000040000fa
:0400cc00a602000088
:020000040000fa
:0400d000a602000084
:020000040000fa
:0400d400a602000080
:020000040000fa
:0400d800a60200007c
:020000040000fa
:0400dc00a602000078
:020000040000fa
:0400e000a602000074
:020000040000fa
:0400e400a602000070
:020000040000fa
:0400e800a60200006c
:020000040000fa
:0400ec00a602000068
:020000040000fa
:0400f000a602000064
:020000040000fa
:0400f400a602000060
:020000040000fa
:0400f800a60200005c
:020000040000fa
:0400fc00a602000058
:020000040000fa
:04010000a602000053
:020000040000fa
:04010400a60200004f
:020000040000fa
:04010800a60200004b
:020000040000fa
:04010c00a602000047
:020000040000fa
:04011000a602000043
:020000040000fa
:04011400a60200003f
:020000040000fa
:04011800a60200003b
:020000040000fa
:04011c00a602000037
:020000040000fa
:04012000a602000033
:020000040000fa
:04012400a60200002f
:020000040000fa
:04012800a60200002b
:020000040000fa
:04012c00a602000027
:020000040000fa
:04013000a602000023
:020000040000fa
:04013400a60200001f
:020000040000fa
:04013800a60200001b
:020000040000fa
:04013c00a602000017
:020000040000fa
:04014000a602000013
:020000040000fa
:04014400a60200000f
:020000040000fa
:04014800a60200000b
:020000040000fa
:04014c00a602000007
:020000040000fa
:04015000a602000003
:020000040000fa
:04015400a6020000ff
:020000040000fa
:04015800a6020000fb
:020000040000fa
:04015c00a6020000f7
:020000040000fa
:04016000a6020000f3
:020000040000fa
:04016400a6020000ef
:020000040000fa
:04016800a6020000eb
:020000040000fa
:04016c00a6020000e7
:020000040000fa
:04017000a6020000e3
:020000040000fa
:04017400a6020000df
:020000040000fa
:04017800a6020000db
:020000040000fa
:04017c00a6020000d7
:020000040000fa
:04018000a6020000d3
:020000040000fa
:04018400a6020000cf
:020000040000fa
:04018800a6020000cb
:020000040000fa
:04018c00a6020000c7
:020000040000fa
:04019000a6020000c3
:020000040000fa
:04019400a6020000bf
:020000040000fa
:04019800a6020000bb
:020000040000fa
:04019c00a6020000b7
:020000040000fa
:0401a000a6020000b3
:020000040000fa
:0401a400a6020000af
:020000040000fa
:0401a800a6020000ab
:020000040000fa
:0401ac00a6020000a7
:020000040000fa
:0401b000a6020000a3
:020000040000fa
:0401b400a60200009f
:020000040000fa
:0401b800a60200009b
:020000040000fa
:0401bc00a602000097
:020000040000fa
:0401c000a602000093
:020000040000fa
:0401c400a60200008f
:020000040000fa
:0401c800a60200008b
:020000040000fa
:0401cc00a602000087
:020000040000fa
:0401d000a602000083
:020000040000fa
:0401d400a60200007f
:020000040000fa
:0401d800a60200007b
:020000040000fa
:0401dc00a602000077
:020000040000fa
:0401e000a602000073
:020000040000fa
:0401e400a60200006f
:020000040000fa
:0401e800a60200006b
:020000040000fa
:0401ec00a602000067
:020000040000fa
:0401f000a602000063
:020000040000fa
:0401f400a60200005f
:020000040000fa
:0401f800a60200005b
:020000040000fa
:0401fc00a602000057
:020000040000fa
:100200004f8220000e7f24000e01880000000000b5
:10021000000020000000e000020032000001200089
:100220002002880014000700ca0007000000e00058
:1002300003003a00e04b20000100200002003700dc
:100240000000200001002000810f7000010032003a
:1002500014000700000020000000e000020032004f
:100260000000020000000000d404020000000000b2
:100270000040da000000fe004440a90060002000b9
:100280000000e00003003200002020009001880000
:100290004440a800000006008a1f78008b1f7800e9
:1002a00000000600a1028800800478000000eb0036
:1002b0001f003700e284440054a0b4009905ba003e
:1002c000e284440054a0b4009906ba00e2844400d9
:1002d00054a0b4000006eb00476fde00fd07b2003b
:1002e000ae018800636ce10003003a00eaff0700fa
:1002f0000000eb000e003700606ce10008003a00df
:10030000004deb000a05e800020039003420ec0043
:100310000af0a0008b05e900f9ff3e000400370059
:100320006168e100010032000086eb000b0007006d
:1003300019c7ba001905ba000e04e00003003a001c
:100340000a00e000dbff3a0000000600fe07b200f2
:10035000ae0288008a047800f5ff37000cd0a300b5
:10036000e20f4d001c00390089027800354dba00bb
:100370000a05e800020039003420ec000af0a00071
:100380008b05e9000f003200254dba000a05e80090
:10039000020039003420ec000af0a0008b05e900cf
:1003a000080032000c00e0000600320015cdba0053
:1003b0000a05e800020039003420ec000af0a00031
:1003c0008b05e9008984e80054a0b4000b00e0002c
:1003d000e2ff3a00000006009902ba00055d7800cd
:1003e0008b05e900f7ff3200c82ade00055d7800c2
:1003f0008b05e900f3ff32000c00e000f1ff320052
:1004000019ddba00eeff37003600f800809fbe000d
:10041000829fbe00849fbe00869fbe000000fa003f
:100420008020a9000000eb00480107000080fa00ce
:100430004f03be004f02be004f01be004f00be0082
:100440003600f900004006003600f800809fbe002c
:10045000829fbe00849fbe00869fbe000000fa00ff
:100460003f0107008040a90010002000370107006d
:100470000080fa004f03be004f02be004f01be00d5
:100480004f00be003600f900004006003600f800bc
:10049000809fbe00829fbe00849fbe00869fbe00dc
:1004a0000000fa008060a90020002000270107005a
:1004b0000080fa004f03be004f02be004f01be0095
:1004c0004f00be003600f900004006003600f8007c
:1004d000809fbe00829fbe00849fbe00869fbe009c
:1004e0000000fa008080a9003000200017010700fa
:1004f0000080fa004f03be004f02be004f01be0055
:100500004f00be003600f900004006003600f8003b
:10051000809fbe00829fbe00849fbe00869fbe005b
:100520000000fa008600a900700020000701070003
:100530000080fa004f03be004f02be004f01be0014
:100540004f00be003600f900004006000040da000f
:080550000000fe0000000500a0
:020000040000fa
:0c055800200100000f0000000000000067
:020000040000fa
:100564000000fa00f5e3a9000080fa00000006008c
:100574000200fa00000f7800a11f8000000028008c
:10058400008060000000e00020003a001e007800b7
:100594006600b90080007800c02a2800008040006e
:1005a40010007800a01f88001e0078006600b900c3
:1005b400000078008080e800c02a28000080400005
:1005c40010007800202088001e0078006600b90022
:1005d40000007800e4004000c02a280000804000a9
:1005e40010407800614060000080fb004f00dd0097
:1005f400b133800001f0a10001007000b033880025
:10060400f5e3a80010c0b300010037000040eb0080
:100614000080fa00000006000200fa00004f780093
:100624001e80fb000020880000000000e01f800006
:10063400610060000000e000fcff32000020800048
:10064400004078000080fa00000006000600fa006e
:1006540010079800210798009e009000010f780071
:10066400060037001e00780010407800eaff0700fb
:100674009e007800804878001e0fe8002e0090004d
:1006840000f0a7000000ea000000ea004f00de00ce
:1006940000407800ae0090008100e9002107980036
:1006a4000004e000efff3a000080fa0000000600ba
:1006b4000600fa0010079800210798009e00900099
:1006c400010f7800040037001e0078001040780005
:1006d4001e0fe800d0ff07002e00900000f0a700d6
:1006e4000000ea000000ea004f00de00004078004d
:1006f400ae0090008100e900210798000004e000aa
:10070400f1ff3a000080fa00000006000600fa003b
:1007140010079800210798009e009000010f7800b0
:10072400050037000040eb00bbff07009e00780087
:10073400804878001e0fe8002e00900000f0a7000b
:100744000000ea000000ea004f00de0000407800ec
:10075400ae0090008100e900210798000004e00049
:10076400f0ff3a000080fa00000006000200fa00e0
:10077400004f78001e80fb00002088000080fa00f3
:10078400000006000000fa0000208000004078000d
:100794000080fa00000006000000fa0071048000e6
:1007a40000402000008060000000e00006003200ed
:1007b400104080000000e000020032001040800081
:1007c400000001008f40a9000080fa00000006002c
:1007d4000200fa00000f78009e00780011408800a3
:1007e4000080fa00000006000000fa006626ef0010
:1007f4007a26ef007001200010338800f0ff2500f6
:10080400b03388007426ef008826ef007226ef00cc
:100814008626ef006826ef007c26ef00700020009b
:1008240050338800c0202100f03388000108800084
:10083400f00b20000081600060042000710520009e
:1008440003102000804978008149780082497800ab
:10085400113f8000f00f28000080600000b0a0006d
:10086400103f8800c13d800000fc2f000080600024
:10087400e000b300c03d8800013f8000f00f280075
:10088400808060000070200001007000003f88003c
:1008940000088000000178000260a00060042000cd
:1008a40071052000031020008049780081497800f8
:1008b400824978000080fa00000006000000fa0077
:1008c40000002300100888000621ef006821ef00d3
:1008d4006a21ef000821ef00007020005008880012
:1008e4000c21ef000e21ef007821ef007a21ef00b8
:1008f4007c21ef007e21ef008021ef008221ef00b8
:100904008421ef008621ef000001eb008007200026
:10091400a109200013102000804978008149780043
:10092400824978000001eb0060042000710520007a
:1009340003102000804978008149780082497800ba
:100944000080fa00000006000200fa00000f7800a0
:100954009e00780001408800ffff37000000fa0085
:100964004080200080077800c081200000018800ba
:080974000080fa0000000600fb
:020000040000fa
:10097c0004080000200000008000000000080000b7
:10098c000200000082000000ffff000002080000cf
:0c099c00020000008000000000000000cd
:020000040000fa
:1009a8000000fa00080007006a26a8006226a900cd
:1009b8006426a8000000eb00ecfe070000c0eb0076
:1009c80069ff0700fdff37000000fa0085ff0700f8
:1009d800b9ff0700020007000080fa0000000600c7
:0c09e8000000fa000080fa000000060089
:020000040000fa
:020000040005f5
:045e0000ffff0000a0
:020000040000fa
:020000040005f5
:045e2000ffffff0081
:020000040000fa
:020000040005f5
:045e300078ffff00f8
:020000040000fa
:020000040005f5
:045e3800b3ffff00b5
:020000040000fa
:020000040005f5
:045e40009fffff00c1
:020000040000fa
:020000040005f5
:045e4800ffffff0059
:020000040000fa
:020000040005f5
:045e5000dfffff0071
:020000040000fa
:020000040005f5
:045e5800ffffff0049
:00000001FF
